:100000000C942A000C9447000C9447000C94470071
:100010000C9447000C9447000C9447000C94470044
:100020000C9447000C9447000C9447000C94470034
:100030000C9447000C9447000C9447000C94470024
:100040000C9447000C9447000C9447000C94470014
:100050000C94470011241FBECFE5D4E0DEBFCDBF16
:1000600010E0A0E6B0E0ECE8F9E002C005900D92E7
:10007000AC36B107D9F720E0ACE6B0E001C01D9284
:10008000AA37B207E1F70E94A2020C94C4040C94B0
:10009000000098B39B7F98BB98B39D7F98BBEFEC13
:1000A000F7E03197F1F700C0000082BB88B38160B0
:1000B00088BB8FEC97E00197F1F700C0000088B390
:1000C0008E7F88BBEFE6F7E13197F1F700C00000C3
:1000D000089598B3946098BB98B39D7F98BBEFEC5C
:1000E000F7E03197F1F700C0000082BB88B3816070
:1000F00088BB8FEC97E00197F1F700C0000088B350
:100100008E7F88BBEFECF7E03197F1F700C000007D
:1001100008958FEF81BB87B3876087BB8FEC97E033
:100120000197F1F700C0000088E30E9449008CE0CD
:100130000E9449008FEC97E00197F1F700C00000A2
:10014000089581E00E9449008FE99FE00197F1F74F
:1001500000C000000895CF93DF93EC0103C0219607
:100160000E94690088818111FACFDF91CF910895B3
:100170008AB381608ABB8BB38E7F8BBB8FEB93E09E
:100180000197F1F700C000008AB38E7F8ABB9AEB1B
:100190009A95F1F700C089B38170E7E4F3E03197F5
:1001A000F1F700C0000008958AB381608ABB8BB369
:1001B0008E7F8BBB80E18A95F1F78AB38E7F8ABBF5
:1001C0008AEA8A95F1F700C008958AB381608ABBF4
:1001D0008BB38E7F8BBB80EA8A95F1F78AB38E7FD3
:1001E0008ABB8AE18A95F1F700C00895813019F43D
:1001F0000E94D40008950E94E50008958AB38160AA
:100200008ABB8BB38E7F8BBB80E18A95F1F78AB373
:100210008E7F8ABB98E19A95F1F789B3817092E954
:100220009A95F1F700C00895CF93DF93D82FC0E0DF
:100230000CC08D2F90E00C2E02C0959587950A94E6
:10024000E2F781700E94F600CF5FC83090F3DF9133
:10025000CF910895CF93DF93D0E0C0E00BC00E9410
:10026000FE0090E00C2E02C0880F991F0A94E2F75E
:10027000D82BCF5FC83098F38D2FDF91CF910895A1
:10028000CF930E94B8008CEC0E94140184E40E9479
:1002900014010E94FE008823E1F30E94B8008CEC58
:1002A0000E9414018EEB0E9414010E942A01C82FA3
:1002B0000E942A01682F70E0762F66276C0F711D4F
:1002C000072E000C880B990B0E94800320E030E081
:1002D00040E85DE30E943504CF9108954F925F920C
:1002E0006F927F928F929F92AF92BF92CF92DF9246
:1002F000EF92FF924B015C0120E030E040E05FE3D1
:100300000E94D6022B013C01C0906C00D0906D0081
:10031000E0906E00F0906F00A70196010E943004FB
:10032000181624F485B3886085BB29C020E030E02E
:1003300040E05FE3C501B4010E94D7024B015C01BC
:100340009B01AC01C701B6010E943004181624F4C9
:1003500085B3806285BB13C0A7019601C301B201BA
:100360000E94430388235CF4A5019401C701B601F0
:100370000E94430388231CF485B3806185BBFF90F2
:10038000EF90DF90CF90BF90AF909F908F907F9035
:100390006F905F904F900895AC0190E001C09F5F17
:1003A000FA01E90FF11D80818111F9CF915020E010
:1003B0000CC0DA01A20FB11D8C91FA01E90FF11DF9
:1003C00030813C9380832F5F9150291790F30895DB
:1003D0008F929F92AF92BF92FF920F931F93CF93F2
:1003E000DF934B015C01EA0120E030E0A9010E94AB
:1003F000430388233CF4B7FAB094B7F8B09401E013
:1004000010E002C000E010E0C501B4010E944F03FB
:10041000F12C10C02AE030E040E050E00E94A2043D
:10042000FE01EF0DF11D605D6083622F732F842F3D
:10043000952FF394611571058105910559F720E019
:1004400030E040E85FE3C501B4010E944303882324
:1004500034F4FE01EF0DF11D80E38083F394012B52
:1004600031F0FE01EF0DF11D8DE28083F394CE019A
:100470000E94CC0111E01F0DFE01EF0DF11D8EE277
:100480008083C501B4010E944803072E000C880B2D
:10049000990B0E9480039B01AC01C501B4010E942D
:1004A000D60200E027C020E030E040E251E40E94A4
:1004B00035044B015C012FE632E143E85AE30E9428
:1004C000D7020E944803FF24F394F10EFE01E10FCE
:1004D000F11D20E3260F2083072E000C880B990BBB
:1004E0000E9480039B01AC01C501B4010E94D602A9
:1004F0000F5F1F2D0630B8F28FEF810FFE01E80F5E
:10050000F11D9081903319F410828150F7CFC10F03
:10051000D11D1882DF91CF911F910F91FF90BF9055
:10052000AF909F908F900895AC0120E030E003C021
:1005300010822F5F3F4FFA01E20FF31F908191115C
:10054000F7CF08950E94890084B3877C84BB0E9402
:10055000400160936C0070936D0080936E009093E7
:100560006F0080E790E00E94940260916C007091AF
:100570006D0080916E0090916F0040E750E00E9406
:10058000E8010E94A10084E690E00E94AB0080E7B1
:1005900090E00E94AB0060916000709161008091DA
:1005A0006200909163000E946E01D1CF5058BB272A
:1005B000AA270E94EE020C94F6030E94E80338F08A
:1005C0000E94EF0320F039F49F3F19F426F40C94B5
:1005D000E5030EF4E095E7FB0C94DF03E92F0E949E
:1005E000070458F3BA17620773078407950720F0CA
:1005F00079F4A6F50C9429040EF4E0950B2EBA2F8D
:10060000A02D0B01B90190010C01CA01A001112418
:10061000FF27591B99F0593F50F4503E68F11A16C4
:10062000F040A22F232F342F4427585FF3CF469555
:1006300037952795A795F0405395C9F77EF41F1677
:10064000BA0B620B730B840BBAF09150A1F0FF0F41
:10065000BB1F661F771F881FC2F70EC0BA0F621F2D
:10066000731F841F48F4879577956795B795F7951D
:100670009E3F08F0B0CF9395880F08F09927EE0FB2
:100680009795879508950E94BB0308F481E008952B
:100690000E944F036894B1110C942A0408950E949B
:1006A0000F0488F09F5798F0B92F9927B751B0F0F1
:1006B000E1F0660F771F881F991F1AF0BA95C9F7E6
:1006C00014C0B13091F00E942904B1E008950C9457
:1006D0002904672F782F8827B85F39F0B93FCCF30A
:1006E000869577956795B395D9F73EF49095809563
:1006F000709561957F4F8F4F9F4F0895E89409C083
:1007000097FB3EF490958095709561957F4F8F4F44
:100710009F4F9923A9F0F92F96E9BB279395F6955A
:10072000879577956795B795F111F8CFFAF4BB0FD8
:1007300011F460FF1BC06F5F7F4F8F4F9F4F16C03C
:10074000882311F096E911C0772321F09EE8872FC6
:10075000762F05C0662371F096E8862F70E060E082
:100760002AF09A95660F771F881FDAF7880F9695FB
:10077000879597F90895990F0008550FAA0BE0E89F
:10078000FEEF16161706E807F907C0F01216130653
:10079000E407F50798F0621B730B840B950B39F493
:1007A0000A2661F0232B242B252B21F408950A26F9
:1007B00009F4A140A6958FEF811D811D089597F939
:1007C0009F6780E870E060E008959FEF80EC0895F7
:1007D00000240A9416161706180609060895002420
:1007E0000A9412161306140605060895092E03949A
:1007F000000C11F4882352F0BB0F40F4BF2B11F40E
:1008000060FF04C06F5F7F4F8F4F9F4F089557FD6C
:100810009058440F551F59F05F3F71F04795880F6E
:1008200097FB991F61F09F3F79F087950895121605
:1008300013061406551FF2CF4695F1DF08C01616B1
:1008400017061806991FF1CF869571056105089462
:100850000895E894BB2766277727CB0197F9089579
:100860000E94BB0308F48FEF08950E9448040C9483
:10087000F6030E94E80338F00E94EF0320F095236E
:1008800011F00C94DF030C94E50311240C942A045A
:100890000E94070470F3959FC1F3950F50E0551F18
:1008A000629FF001729FBB27F00DB11D639FAA27C5
:1008B000F00DB11DAA1F649F6627B00DA11D661F14
:1008C000829F2227B00DA11D621F739FB00DA11D35
:1008D000621F839FA00D611D221F749F3327A00DEF
:1008E000611D231F849F600D211D822F762F6A2F8B
:1008F00011249F5750409AF0F1F088234AF0EE0FF0
:10090000FF1FBB1F661F771F881F91505040A9F71C
:100910009E3F510580F00C94DF030C942A045F3F46
:10092000E4F3983ED4F3869577956795B795F79558
:10093000E7959F5FC1F7FE2B880F911D96958795D0
:1009400097F90895A1E21A2EAA1BBB1BFD010DC049
:10095000AA1FBB1FEE1FFF1FA217B307E407F5076F
:1009600020F0A21BB30BE40BF50B661F771F881F4B
:10097000991F1A9469F760957095809590959B01E1
:0C098000AC01BD01CF010895F894FFCF39
:0C098C00CDCCC04154656D703A200000D5
:00000001FF
