S00F000050726F6A6563742E737265633E
S11300000C942A000C943F000C943F000C943F0085
S11300100C943F000C943F000C943F000C943F0060
S11300200C943F000C943F000C943F000C943F0050
S11300300C943F000C943F000C943F000C943F0040
S11300400C943F000C943F000C943F000C943F0030
S11300500C943F0011241FBECFE5D4E0DEBFCDBF1A
S113006010E0A0E6B0E0E6EDF4E002C005900D92E9
S1130070AA36B107D9F70E94F8010C9469020C94CE
S1130080000092B39E7F92BB92B39D7F92BBEFEC34
S1130090F7E03197F1F700C0000085BB82B38460BC
S11300A082BB8FEC97E00197F1F700C0000082B3A8
S11300B08B7F82BBEFE6F7E13197F1F700C00000D8
S11300C0089592B3916092BB92B39D7F92BBEFEC83
S11300D0F7E03197F1F700C0000085BB82B384607C
S11300E082BB8FEC97E00197F1F700C0000082B368
S11300F08B7F82BBEFECF7E03197F1F700C0000093
S113010008958FEF84BB81B3876081BB8FEC97E048
S11301100197F1F700C0000088E30E9441008CE0E1
S11301200E9441008FEC97E00197F1F700C00000B6
S1130130089581E00E9441008FE99FE00197F1F763
S113014000C000000895CF93DF93EC0103C0219613
S11301500E94610088818111FACFDF91CF910895C7
S11301608AB381608ABB8BB38E7F8BBB8FEB93E0AA
S11301700197F1F700C000008AB38E7F8ABB9AEB27
S11301809A95F1F700C089B38170E7E4F3E0319701
S1130190F1F700C0000008958AB381608ABB8BB375
S11301A08E7F8BBB80E18A95F1F78AB38E7F8ABB01
S11301B08AEA8A95F1F700C008958AB381608ABB00
S11301C08BB38E7F8BBB80EA8A95F1F78AB38E7FDF
S11301D08ABB8AE18A95F1F700C00895813019F449
S11301E00E94CC0008950E94DD0008958AB38160C6
S11301F08ABB8BB38E7F8BBB80E18A95F1F78AB380
S11302008E7F8ABB98E19A95F1F789B3817092E960
S11302109A95F1F700C00895CF93DF93D82FC0E0EB
S11302200CC08D2F90E00C2E02C0959587950A94F2
S1130230E2F781700E94EE00CF5FC83090F3DF9147
S1130240CF910895CF93DF93D0E0C0E00BC00E941C
S1130250F60090E00C2E02C0880F991F0A94E2F772
S1130260D82BCF5FC83098F38D2FDF91CF910895AD
S1130270CF930E94B0008CEC0E940C0184E40E9495
S11302800C010E94F6008823E1F30E94B0008CEC7C
S11302900E940C018EEB0E940C010E942201C82FC7
S11302A00E94220190E0982F88278C2BCF910895EB
S11302B0CF93DF93EC010E9438019595879595952E
S11302C087959595879595958795682F70E080E03B
S11302D090E0AE010E94B301DF91CF910895CF93D6
S11302E0DF93EC010E9438018F7090E09C01220F93
S11302F0331F880F991F880F991F880F991F820F2A
S1130300931FBC01992314F4615F7F4F7595679522
S113031075956795759567957595679570E080E017
S113032090E0AE010E94B301DF91CF910895AC013A
S113033090E001C09F5FFA01E90FF11D80818111F6
S1130340F9CF915020E00CC0DA01A20FB11D8C91BD
S1130350FA01E90FF11D30813C9380832F5F9150A6
S1130360291790F30895FF920F931F93CF93DF9370
S1130370EA01992354F490958095709561957F4F87
S11303808F4F9F4F01E010E002C000E010E06115C4
S1130390710581059105B1F480E38883FF24F3940A
S11303A017C02AE030E040E050E00E944A02FE011B
S11303B0EF0DF11D605D6083622F732F842F952FE5
S11303C0F39401C0F12C611571058105910549F77C
S11303D0012B29F0FE01EF0DF11D8DE28083CE018A
S11303E00E949701DF91CF911F910F91FF90089583
S11303F0CF93DF93CDB7DEB72B970FB6F894DEBF5C
S11304000FBECDBF0E94810080E690E00E94A30051
S1130410CE0101960E945801CE0108960E946F01F8
S1130420CE0101960E94A30087E690E00E94A300FB
S1130430CE0108960E94A3002FEF81EE94E0215094
S113044080409040E1F700C000000E949900DCCF9A
S1130450A1E21A2EAA1BBB1BFD010DC0AA1FBB1FC4
S1130460EE1FFF1FA217B307E407F50720F0A21B36
S1130470B30BE40BF50B661F771F881F991F1A94A3
S113048069F760957095809590959B01AC01BD01CD
S1130490CF010895052E97FB1EF400940E9461027B
S11304A057FD07D00E94280207FC03D04EF40C9499
S11304B0610250954095309521953F4F4F4F5F4FC6
S11304C0089590958095709561957F4F8F4F9F4FBC
S10904D00895F894FFCF2B
S10D04D654656D703A20002E0000FA
S9030000FC
