S00F000050726F6A6563742E737265633E
S11300000C942A000C943F000C943F000C943F0085
S11300100C943F000C943F000C943F000C943F0060
S11300200C943F000C943F000C943F000C943F0050
S11300300C943F000C943F000C943F000C943F0040
S11300400C943F000C943F000C943F000C943F0030
S11300500C943F0011241FBECFE5D4E0DEBFCDBF1A
S113006010E0A0E6B0E0EAEFF3E002C005900D92E4
S1130070AA36B107D9F70E94CB010C94FB010C946A
S1130080000092B39E7F92BB92B39D7F92BBEFEC34
S1130090F7E03197F1F700C0000085BB82B38460BC
S11300A082BB8FEC97E00197F1F700C0000082B3A8
S11300B08B7F82BBEFE6F7E13197F1F700C00000D8
S11300C0089592B3916092BB92B39D7F92BBEFEC83
S11300D0F7E03197F1F700C0000085BB82B384607C
S11300E082BB8FEC97E00197F1F700C0000082B368
S11300F08B7F82BBEFECF7E03197F1F700C0000093
S113010008958FEF84BB81B3876081BB8FEC97E048
S11301100197F1F700C0000088E30E9441008CE0E1
S11301200E9441008FEC97E00197F1F700C00000B6
S1130130089581E00E9441008FE99FE00197F1F763
S113014000C000000895CF93DF93EC0103C0219613
S11301500E94610088818111FACFDF91CF910895C7
S11301608AB381608ABB8BB38E7F8BBB8FEB93E0AA
S11301700197F1F700C000008AB38E7F8ABB9AEB27
S11301809A95F1F700C089B38170E7E4F3E0319701
S1130190F1F700C0000008958AB381608ABB8BB375
S11301A08E7F8BBB80E18A95F1F78AB38E7F8ABB01
S11301B08AEA8A95F1F700C008958AB381608ABB00
S11301C08BB38E7F8BBB80EA8A95F1F78AB38E7FDF
S11301D08ABB8AE18A95F1F700C00895813019F449
S11301E00E94CC0008950E94DD0008958AB38160C6
S11301F08ABB8BB38E7F8BBB80E18A95F1F78AB380
S11302008E7F8ABB98E19A95F1F789B3817092E960
S11302109A95F1F700C00895CF93DF93D82FC0E0EB
S11302200CC08D2F90E00C2E02C0959587950A94F2
S1130230E2F781700E94EE00CF5FC83090F3DF9147
S1130240CF910895CF93DF93D0E0C0E00BC00E941C
S1130250F60090E00C2E02C0880F991F0A94E2F772
S1130260D82BCF5FC83098F38D2FDF91CF910895AD
S1130270CF930E94B0008CEC0E940C0184E40E9495
S11302800C010E94F6008823E1F30E94B0008CEC7C
S11302900E940C018EEB0E940C010E942201C82FC7
S11302A00E94220190E0982F88278C2BCF910895EB
S11302B0CF93DF93EC010E9438019595879595952E
S11302C087959595879595958795BE010E94970189
S11302D0DF91CF910895CF93DF93EC010E94380111
S11302E0982F990F890F982F990F990F890F90E0E4
S11302F09C01220F331F880F991F880F991F880FA5
S1130300991F820F931F9C01992314F4215F3F4F7F
S1130310C901959587959595879595958795959513
S11303208795BE010E949701DF91CF91089520E047
S113033019C03DEC839F312D1124932F96959695EA
S11303409695990F492F440F440F940F891B982FAA
S1130350FB01E20FF11D905D9083832F86958695B6
S113036086952F5F8111E5CFFB01E20FF11D10820D
S11303708FEF820F90E00CC0DB01A90FB11D2C910F
S1130380FB01E80FF11D30813C9320839F5F815076
S1130390981790F30895CF93DF93CDB7DEB72B97DB
S11303A00FB6F894DEBF0FBECDBF0E94810080E679
S11303B090E00E94A300CE0101960E945801CE0154
S11303C008960E946B01CE0101960E94A30087E665
S11303D090E00E94A300CE0108960E94A3002FEF94
S11303E081EE94E0215080409040E1F700C000008D
S10D03F00E949900DCCFF894FFCFBF
S10D03FA54656D703A20002E0000D7
S9030000FC
